{
  "_format": "hh-sol-artifact-1",
  "contractName": "GovStaking",
  "sourceName": "contracts/GovStaking.sol",
  "abi": [
    {
      "inputs": [],
      "stateMutability": "nonpayable",
      "type": "constructor"
    },
    {
      "inputs": [],
      "name": "InvalidInitialization",
      "type": "error"
    },
    {
      "inputs": [],
      "name": "NotInitializing",
      "type": "error"
    },
    {
      "inputs": [],
      "name": "ReentrancyGuardReentrantCall",
      "type": "error"
    },
    {
      "anonymous": false,
      "inputs": [
        {
          "indexed": false,
          "internalType": "uint64",
          "name": "version",
          "type": "uint64"
        }
      ],
      "name": "Initialized",
      "type": "event"
    },
    {
      "anonymous": false,
      "inputs": [
        {
          "indexed": true,
          "internalType": "address",
          "name": "user",
          "type": "address"
        },
        {
          "indexed": false,
          "internalType": "uint256",
          "name": "amount",
          "type": "uint256"
        }
      ],
      "name": "RewardClaimed",
      "type": "event"
    },
    {
      "anonymous": false,
      "inputs": [
        {
          "indexed": true,
          "internalType": "address",
          "name": "user",
          "type": "address"
        },
        {
          "indexed": false,
          "internalType": "uint256",
          "name": "amount",
          "type": "uint256"
        }
      ],
      "name": "Staked",
      "type": "event"
    },
    {
      "anonymous": false,
      "inputs": [
        {
          "indexed": true,
          "internalType": "address",
          "name": "user",
          "type": "address"
        },
        {
          "indexed": false,
          "internalType": "uint256",
          "name": "amount",
          "type": "uint256"
        }
      ],
      "name": "Unstaked",
      "type": "event"
    },
    {
      "inputs": [],
      "name": "claimGovToken",
      "outputs": [],
      "stateMutability": "nonpayable",
      "type": "function"
    },
    {
      "inputs": [],
      "name": "govToken",
      "outputs": [
        {
          "internalType": "contract GovToken",
          "name": "",
          "type": "address"
        }
      ],
      "stateMutability": "view",
      "type": "function"
    },
    {
      "inputs": [
        {
          "internalType": "address",
          "name": "_govToken",
          "type": "address"
        },
        {
          "internalType": "uint256",
          "name": "_rewardRatePerSecond",
          "type": "uint256"
        }
      ],
      "name": "initialize",
      "outputs": [],
      "stateMutability": "nonpayable",
      "type": "function"
    },
    {
      "inputs": [],
      "name": "rewardRatePerSecond",
      "outputs": [
        {
          "internalType": "uint256",
          "name": "",
          "type": "uint256"
        }
      ],
      "stateMutability": "view",
      "type": "function"
    },
    {
      "inputs": [],
      "name": "stake",
      "outputs": [],
      "stateMutability": "payable",
      "type": "function"
    },
    {
      "inputs": [
        {
          "internalType": "address",
          "name": "",
          "type": "address"
        }
      ],
      "name": "stakes",
      "outputs": [
        {
          "internalType": "uint256",
          "name": "amount",
          "type": "uint256"
        },
        {
          "internalType": "uint256",
          "name": "lastClaimed",
          "type": "uint256"
        }
      ],
      "stateMutability": "view",
      "type": "function"
    },
    {
      "inputs": [],
      "name": "unstake",
      "outputs": [],
      "stateMutability": "nonpayable",
      "type": "function"
    }
  ],
  "bytecode": "0x608060405234801561001057600080fd5b5061001f61002460201b60201c565b6101ab565b600061003461012860201b60201c565b90508060000160089054906101000a900460ff161561007f576040517ff92ee8a900000000000000000000000000000000000000000000000000000000815260040160405180910390fd5b67ffffffffffffffff80168160000160009054906101000a900467ffffffffffffffff1667ffffffffffffffff16146101255767ffffffffffffffff8160000160006101000a81548167ffffffffffffffff021916908367ffffffffffffffff1602179055507fc7f505b2f371ae2175ee4913f4499e1f2633a7b5936321eed1cdaeb6115181d267ffffffffffffffff60405161011c9190610190565b60405180910390a15b50565b60008061013961014260201b60201c565b90508091505090565b60007ff0c57e16840df040f15088dc2f81fe391c3923bec73e23a9662efc9c229c6a0060001b905090565b600067ffffffffffffffff82169050919050565b61018a8161016d565b82525050565b60006020820190506101a56000830184610181565b92915050565b610f23806101ba6000396000f3fe6080604052600436106100705760003560e01c80632def66201161004e5780632def6620146100f55780633a4b66f11461010c5780635d773b2c14610116578063cd6dc6871461014157610070565b806305268cff1461007557806316934fc4146100a05780632361e21b146100de575b600080fd5b34801561008157600080fd5b5061008a61016a565b6040516100979190610a23565b60405180910390f35b3480156100ac57600080fd5b506100c760048036038101906100c29190610a81565b61018e565b6040516100d5929190610ac7565b60405180910390f35b3480156100ea57600080fd5b506100f36101b2565b005b34801561010157600080fd5b5061010a61021f565b005b610114610408565b005b34801561012257600080fd5b5061012b61051a565b6040516101389190610af0565b60405180910390f35b34801561014d57600080fd5b5061016860048036038101906101639190610b37565b610520565b005b60008054906101000a900473ffffffffffffffffffffffffffffffffffffffff1681565b60026020528060005260406000206000915090508060000154908060010154905082565b6101ba6106f6565b60006101c461074d565b90503373ffffffffffffffffffffffffffffffffffffffff167f106f923f993c2149d49b4255ff723acafa1f2d94393f561d3eda32ae348f72418260405161020c9190610af0565b60405180910390a25061021d610891565b565b6102276106f6565b6000600260003373ffffffffffffffffffffffffffffffffffffffff1673ffffffffffffffffffffffffffffffffffffffff168152602001908152602001600020600001549050600081116102b1576040517f08c379a00000000000000000000000000000000000000000000000000000000081526004016102a890610bd4565b60405180910390fd5b6102b961074d565b506000600260003373ffffffffffffffffffffffffffffffffffffffff1673ffffffffffffffffffffffffffffffffffffffff1681526020019081526020016000206000018190555060003373ffffffffffffffffffffffffffffffffffffffff168260405161032890610c25565b60006040518083038185875af1925050503d8060008114610365576040519150601f19603f3d011682016040523d82523d6000602084013e61036a565b606091505b50509050806103ae576040517f08c379a00000000000000000000000000000000000000000000000000000000081526004016103a590610c86565b60405180910390fd5b3373ffffffffffffffffffffffffffffffffffffffff167f0f5bb82176feb1b5e747e28471aa92156a04d9f3ab9f45f28e2d704232b93f75836040516103f49190610af0565b60405180910390a25050610406610891565b565b6000341161044b576040517f08c379a000000000000000000000000000000000000000000000000000000000815260040161044290610cf2565b60405180910390fd5b6000600260003373ffffffffffffffffffffffffffffffffffffffff1673ffffffffffffffffffffffffffffffffffffffff16815260200190815260200160002090506000816000015411156104a5576104a361074d565b505b348160000160008282546104b99190610d41565b925050819055504281600101819055503373ffffffffffffffffffffffffffffffffffffffff167f9e71bc8eea02a63969f509818f2dafb9254532904319f9dbda79b67bd34a5f3d3460405161050f9190610af0565b60405180910390a250565b60015481565b600061052a6108aa565b905060008160000160089054906101000a900460ff1615905060008260000160009054906101000a900467ffffffffffffffff1690506000808267ffffffffffffffff161480156105785750825b9050600060018367ffffffffffffffff161480156105ad575060003073ffffffffffffffffffffffffffffffffffffffff163b145b9050811580156105bb575080155b156105f2576040517ff92ee8a900000000000000000000000000000000000000000000000000000000815260040160405180910390fd5b60018560000160006101000a81548167ffffffffffffffff021916908367ffffffffffffffff16021790555083156106425760018560000160086101000a81548160ff0219169083151502179055505b61064a6108be565b866000806101000a81548173ffffffffffffffffffffffffffffffffffffffff021916908373ffffffffffffffffffffffffffffffffffffffff1602179055508560018190555083156106ed5760008560000160086101000a81548160ff0219169083151502179055507fc7f505b2f371ae2175ee4913f4499e1f2633a7b5936321eed1cdaeb6115181d260016040516106e49190610dc4565b60405180910390a15b50505050505050565b60006107006108d0565b90506002816000015403610740576040517f3ee5aeb500000000000000000000000000000000000000000000000000000000815260040160405180910390fd5b6002816000018190555050565b600080600260003373ffffffffffffffffffffffffffffffffffffffff1673ffffffffffffffffffffffffffffffffffffffff168152602001908152602001600020905060008160010154426107a39190610ddf565b905060008083600001541180156107ba5750600082115b1561087f57670de0b6b3a76400008360000154600154846107db9190610e13565b6107e59190610e13565b6107ef9190610e84565b905060008054906101000a900473ffffffffffffffffffffffffffffffffffffffff1673ffffffffffffffffffffffffffffffffffffffff166340c10f1933836040518363ffffffff1660e01b815260040161084c929190610ec4565b600060405180830381600087803b15801561086657600080fd5b505af115801561087a573d6000803e3d6000fd5b505050505b42836001018190555080935050505090565b600061089b6108d0565b90506001816000018190555050565b6000806108b56108f8565b90508091505090565b6108c6610923565b6108ce610963565b565b60007f9b779b17422d0df92223018b32b4d1fa46e071723d6817e2486d003becc55f00905090565b60007ff0c57e16840df040f15088dc2f81fe391c3923bec73e23a9662efc9c229c6a0060001b905090565b61092b610984565b610961576040517fd7e6bcf800000000000000000000000000000000000000000000000000000000815260040160405180910390fd5b565b61096b610923565b60006109756108d0565b90506001816000018190555050565b600061098e6108aa565b60000160089054906101000a900460ff16905090565b600073ffffffffffffffffffffffffffffffffffffffff82169050919050565b6000819050919050565b60006109e96109e46109df846109a4565b6109c4565b6109a4565b9050919050565b60006109fb826109ce565b9050919050565b6000610a0d826109f0565b9050919050565b610a1d81610a02565b82525050565b6000602082019050610a386000830184610a14565b92915050565b600080fd5b6000610a4e826109a4565b9050919050565b610a5e81610a43565b8114610a6957600080fd5b50565b600081359050610a7b81610a55565b92915050565b600060208284031215610a9757610a96610a3e565b5b6000610aa584828501610a6c565b91505092915050565b6000819050919050565b610ac181610aae565b82525050565b6000604082019050610adc6000830185610ab8565b610ae96020830184610ab8565b9392505050565b6000602082019050610b056000830184610ab8565b92915050565b610b1481610aae565b8114610b1f57600080fd5b50565b600081359050610b3181610b0b565b92915050565b60008060408385031215610b4e57610b4d610a3e565b5b6000610b5c85828601610a6c565b9250506020610b6d85828601610b22565b9150509250929050565b600082825260208201905092915050565b7f4552523430323a20556e7374616b650000000000000000000000000000000000600082015250565b6000610bbe600f83610b77565b9150610bc982610b88565b602082019050919050565b60006020820190508181036000830152610bed81610bb1565b9050919050565b600081905092915050565b50565b6000610c0f600083610bf4565b9150610c1a82610bff565b600082019050919050565b6000610c3082610c02565b9150819050919050565b7f455448207472616e73666572206661696c656400000000000000000000000000600082015250565b6000610c70601383610b77565b9150610c7b82610c3a565b602082019050919050565b60006020820190508181036000830152610c9f81610c63565b9050919050565b7f5374616b65203e20300000000000000000000000000000000000000000000000600082015250565b6000610cdc600983610b77565b9150610ce782610ca6565b602082019050919050565b60006020820190508181036000830152610d0b81610ccf565b9050919050565b7f4e487b7100000000000000000000000000000000000000000000000000000000600052601160045260246000fd5b6000610d4c82610aae565b9150610d5783610aae565b9250828201905080821115610d6f57610d6e610d12565b5b92915050565b6000819050919050565b600067ffffffffffffffff82169050919050565b6000610dae610da9610da484610d75565b6109c4565b610d7f565b9050919050565b610dbe81610d93565b82525050565b6000602082019050610dd96000830184610db5565b92915050565b6000610dea82610aae565b9150610df583610aae565b9250828203905081811115610e0d57610e0c610d12565b5b92915050565b6000610e1e82610aae565b9150610e2983610aae565b9250828202610e3781610aae565b91508282048414831517610e4e57610e4d610d12565b5b5092915050565b7f4e487b7100000000000000000000000000000000000000000000000000000000600052601260045260246000fd5b6000610e8f82610aae565b9150610e9a83610aae565b925082610eaa57610ea9610e55565b5b828204905092915050565b610ebe81610a43565b82525050565b6000604082019050610ed96000830185610eb5565b610ee66020830184610ab8565b939250505056fea2646970667358221220558544d7461bc4189513de9241e61c2ef0edc66a3edfa5ffed0bd781cd0f198964736f6c634300081c0033",
  "linkReferences": {},
  "deployedLinkReferences": {}
}