{
  "_format": "hh-sol-artifact-1",
  "contractName": "DAOGovernance",
  "sourceName": "contracts/DAOGovernance.sol",
  "abi": [
    {
      "inputs": [
        {
          "internalType": "contract GovToken",
          "name": "_govToken",
          "type": "address"
        }
      ],
      "stateMutability": "nonpayable",
      "type": "constructor"
    },
    {
      "anonymous": false,
      "inputs": [
        {
          "indexed": true,
          "internalType": "uint256",
          "name": "proposalId",
          "type": "uint256"
        },
        {
          "indexed": false,
          "internalType": "uint256",
          "name": "deadline",
          "type": "uint256"
        }
      ],
      "name": "ProposalCreated",
      "type": "event"
    },
    {
      "anonymous": false,
      "inputs": [
        {
          "indexed": true,
          "internalType": "uint256",
          "name": "proposalId",
          "type": "uint256"
        },
        {
          "indexed": true,
          "internalType": "address",
          "name": "voter",
          "type": "address"
        },
        {
          "indexed": false,
          "internalType": "bool",
          "name": "support",
          "type": "bool"
        },
        {
          "indexed": false,
          "internalType": "uint256",
          "name": "weight",
          "type": "uint256"
        }
      ],
      "name": "Voted",
      "type": "event"
    },
    {
      "inputs": [
        {
          "internalType": "string",
          "name": "_description",
          "type": "string"
        },
        {
          "internalType": "uint256",
          "name": "durationSeconds",
          "type": "uint256"
        }
      ],
      "name": "createProposal",
      "outputs": [],
      "stateMutability": "nonpayable",
      "type": "function"
    },
    {
      "inputs": [
        {
          "internalType": "uint256",
          "name": "proposalId",
          "type": "uint256"
        }
      ],
      "name": "getProposalStatus",
      "outputs": [
        {
          "internalType": "string",
          "name": "status",
          "type": "string"
        }
      ],
      "stateMutability": "view",
      "type": "function"
    },
    {
      "inputs": [],
      "name": "govToken",
      "outputs": [
        {
          "internalType": "contract GovToken",
          "name": "",
          "type": "address"
        }
      ],
      "stateMutability": "view",
      "type": "function"
    },
    {
      "inputs": [],
      "name": "proposalCount",
      "outputs": [
        {
          "internalType": "uint256",
          "name": "",
          "type": "uint256"
        }
      ],
      "stateMutability": "view",
      "type": "function"
    },
    {
      "inputs": [
        {
          "internalType": "uint256",
          "name": "",
          "type": "uint256"
        }
      ],
      "name": "proposals",
      "outputs": [
        {
          "internalType": "string",
          "name": "description",
          "type": "string"
        },
        {
          "internalType": "uint256",
          "name": "deadline",
          "type": "uint256"
        },
        {
          "internalType": "uint256",
          "name": "yesVotes",
          "type": "uint256"
        },
        {
          "internalType": "uint256",
          "name": "noVotes",
          "type": "uint256"
        }
      ],
      "stateMutability": "view",
      "type": "function"
    },
    {
      "inputs": [
        {
          "internalType": "uint256",
          "name": "proposalId",
          "type": "uint256"
        },
        {
          "internalType": "bool",
          "name": "support",
          "type": "bool"
        }
      ],
      "name": "vote",
      "outputs": [],
      "stateMutability": "nonpayable",
      "type": "function"
    }
  ],
  "bytecode": "0x6080604052600060015534801561001557600080fd5b50604051611374380380611374833981810160405281019061003791906100f2565b806000806101000a81548173ffffffffffffffffffffffffffffffffffffffff021916908373ffffffffffffffffffffffffffffffffffffffff1602179055505061011f565b600080fd5b600073ffffffffffffffffffffffffffffffffffffffff82169050919050565b60006100ad82610082565b9050919050565b60006100bf826100a2565b9050919050565b6100cf816100b4565b81146100da57600080fd5b50565b6000815190506100ec816100c6565b92915050565b6000602082840312156101085761010761007d565b5b6000610116848285016100dd565b91505092915050565b6112468061012e6000396000f3fe608060405234801561001057600080fd5b50600436106100625760003560e01c8063013cf08b1461006757806305268cff1461009a57806335facf78146100b8578063401853b7146100d4578063c9d27afe14610104578063da35c66414610120575b600080fd5b610081600480360381019061007c9190610798565b61013e565b6040516100919493929190610864565b60405180910390f35b6100a26101f6565b6040516100af919061092f565b60405180910390f35b6100d260048036038101906100cd9190610a7f565b61021a565b005b6100ee60048036038101906100e99190610798565b6102b4565b6040516100fb9190610adb565b60405180910390f35b61011e60048036038101906101199190610b35565b6103e6565b005b610128610748565b6040516101359190610b75565b60405180910390f35b600260205280600052604060002060009150905080600001805461016190610bbf565b80601f016020809104026020016040519081016040528092919081815260200182805461018d90610bbf565b80156101da5780601f106101af576101008083540402835291602001916101da565b820191906000526020600020905b8154815290600101906020018083116101bd57829003601f168201915b5050505050908060010154908060020154908060030154905084565b60008054906101000a900473ffffffffffffffffffffffffffffffffffffffff1681565b60006002600060015481526020019081526020016000209050828160000190816102449190610d92565b5081426102519190610e93565b81600101819055506001547ffcf3b1aa65a464cef2889608f99e8b8c0f680a4be6c2acb9d961c536a5a9294b826001015460405161028f9190610b75565b60405180910390a2600160008154809291906102aa90610ec7565b9190505550505050565b606060015482106102fa576040517f08c379a00000000000000000000000000000000000000000000000000000000081526004016102f190610f5b565b60405180910390fd5b600060026000848152602001908152602001600020905080600101544211610357576040517f08c379a000000000000000000000000000000000000000000000000000000000815260040161034e90610fc7565b60405180910390fd5b600081600301548260020154119050806103a6576040518060400160405280600681526020017f4661696c656400000000000000000000000000000000000000000000000000008152506103dd565b6040518060400160405280600681526020017f50617373656400000000000000000000000000000000000000000000000000008152505b92505050919050565b60006002600084815260200190815260200160002090508060010154421115610444576040517f08c379a000000000000000000000000000000000000000000000000000000000815260040161043b90611033565b60405180910390fd5b6000600281111561045857610457611053565b5b8160040160003373ffffffffffffffffffffffffffffffffffffffff1673ffffffffffffffffffffffffffffffffffffffff16815260200190815260200160002060009054906101000a900460ff1660028111156104b9576104b8611053565b5b146104f9576040517f08c379a00000000000000000000000000000000000000000000000000000000081526004016104f0906110ce565b60405180910390fd5b60008060009054906101000a900473ffffffffffffffffffffffffffffffffffffffff1673ffffffffffffffffffffffffffffffffffffffff166370a08231336040518263ffffffff1660e01b8152600401610555919061110f565b602060405180830381865afa158015610572573d6000803e3d6000fd5b505050506040513d601f19601f82011682018060405250810190610596919061113f565b9050600081116105db576040517f08c379a00000000000000000000000000000000000000000000000000000000081526004016105d2906111b8565b60405180910390fd5b821561066b57808260020160008282546105f59190610e93565b9250508190555060018260040160003373ffffffffffffffffffffffffffffffffffffffff1673ffffffffffffffffffffffffffffffffffffffff16815260200190815260200160002060006101000a81548160ff0219169083600281111561066157610660611053565b5b02179055506106f1565b8082600301600082825461067f9190610e93565b9250508190555060028260040160003373ffffffffffffffffffffffffffffffffffffffff1673ffffffffffffffffffffffffffffffffffffffff16815260200190815260200160002060006101000a81548160ff021916908360028111156106eb576106ea611053565b5b02179055505b3373ffffffffffffffffffffffffffffffffffffffff16847f7c2de587c00d75474a0c6c6fa96fd3b45dc974cd4e8a75f712bb84c950dce1b5858460405161073a9291906111e7565b60405180910390a350505050565b60015481565b6000604051905090565b600080fd5b600080fd5b6000819050919050565b61077581610762565b811461078057600080fd5b50565b6000813590506107928161076c565b92915050565b6000602082840312156107ae576107ad610758565b5b60006107bc84828501610783565b91505092915050565b600081519050919050565b600082825260208201905092915050565b60005b838110156107ff5780820151818401526020810190506107e4565b60008484015250505050565b6000601f19601f8301169050919050565b6000610827826107c5565b61083181856107d0565b93506108418185602086016107e1565b61084a8161080b565b840191505092915050565b61085e81610762565b82525050565b6000608082019050818103600083015261087e818761081c565b905061088d6020830186610855565b61089a6040830185610855565b6108a76060830184610855565b95945050505050565b600073ffffffffffffffffffffffffffffffffffffffff82169050919050565b6000819050919050565b60006108f56108f06108eb846108b0565b6108d0565b6108b0565b9050919050565b6000610907826108da565b9050919050565b6000610919826108fc565b9050919050565b6109298161090e565b82525050565b60006020820190506109446000830184610920565b92915050565b600080fd5b600080fd5b7f4e487b7100000000000000000000000000000000000000000000000000000000600052604160045260246000fd5b61098c8261080b565b810181811067ffffffffffffffff821117156109ab576109aa610954565b5b80604052505050565b60006109be61074e565b90506109ca8282610983565b919050565b600067ffffffffffffffff8211156109ea576109e9610954565b5b6109f38261080b565b9050602081019050919050565b82818337600083830152505050565b6000610a22610a1d846109cf565b6109b4565b905082815260208101848484011115610a3e57610a3d61094f565b5b610a49848285610a00565b509392505050565b600082601f830112610a6657610a6561094a565b5b8135610a76848260208601610a0f565b91505092915050565b60008060408385031215610a9657610a95610758565b5b600083013567ffffffffffffffff811115610ab457610ab361075d565b5b610ac085828601610a51565b9250506020610ad185828601610783565b9150509250929050565b60006020820190508181036000830152610af5818461081c565b905092915050565b60008115159050919050565b610b1281610afd565b8114610b1d57600080fd5b50565b600081359050610b2f81610b09565b92915050565b60008060408385031215610b4c57610b4b610758565b5b6000610b5a85828601610783565b9250506020610b6b85828601610b20565b9150509250929050565b6000602082019050610b8a6000830184610855565b92915050565b7f4e487b7100000000000000000000000000000000000000000000000000000000600052602260045260246000fd5b60006002820490506001821680610bd757607f821691505b602082108103610bea57610be9610b90565b5b50919050565b60008190508160005260206000209050919050565b60006020601f8301049050919050565b600082821b905092915050565b600060088302610c527fffffffffffffffffffffffffffffffffffffffffffffffffffffffffffffffff82610c15565b610c5c8683610c15565b95508019841693508086168417925050509392505050565b6000610c8f610c8a610c8584610762565b6108d0565b610762565b9050919050565b6000819050919050565b610ca983610c74565b610cbd610cb582610c96565b848454610c22565b825550505050565b600090565b610cd2610cc5565b610cdd818484610ca0565b505050565b5b81811015610d0157610cf6600082610cca565b600181019050610ce3565b5050565b601f821115610d4657610d1781610bf0565b610d2084610c05565b81016020851015610d2f578190505b610d43610d3b85610c05565b830182610ce2565b50505b505050565b600082821c905092915050565b6000610d6960001984600802610d4b565b1980831691505092915050565b6000610d828383610d58565b9150826002028217905092915050565b610d9b826107c5565b67ffffffffffffffff811115610db457610db3610954565b5b610dbe8254610bbf565b610dc9828285610d05565b600060209050601f831160018114610dfc5760008415610dea578287015190505b610df48582610d76565b865550610e5c565b601f198416610e0a86610bf0565b60005b82811015610e3257848901518255600182019150602085019450602081019050610e0d565b86831015610e4f5784890151610e4b601f891682610d58565b8355505b6001600288020188555050505b505050505050565b7f4e487b7100000000000000000000000000000000000000000000000000000000600052601160045260246000fd5b6000610e9e82610762565b9150610ea983610762565b9250828201905080821115610ec157610ec0610e64565b5b92915050565b6000610ed282610762565b91507fffffffffffffffffffffffffffffffffffffffffffffffffffffffffffffffff8203610f0457610f03610e64565b5b600182019050919050565b7f50726f706f73616c20646f6573206e6f74206578697374000000000000000000600082015250565b6000610f456017836107d0565b9150610f5082610f0f565b602082019050919050565b60006020820190508181036000830152610f7481610f38565b9050919050565b7f5374696c6c206163746976650000000000000000000000000000000000000000600082015250565b6000610fb1600c836107d0565b9150610fbc82610f7b565b602082019050919050565b60006020820190508181036000830152610fe081610fa4565b9050919050565b7f566f74696e6720636c6f73656400000000000000000000000000000000000000600082015250565b600061101d600d836107d0565b915061102882610fe7565b602082019050919050565b6000602082019050818103600083015261104c81611010565b9050919050565b7f4e487b7100000000000000000000000000000000000000000000000000000000600052602160045260246000fd5b7f416c726561647920766f74656400000000000000000000000000000000000000600082015250565b60006110b8600d836107d0565b91506110c382611082565b602082019050919050565b600060208201905081810360008301526110e7816110ab565b9050919050565b60006110f9826108b0565b9050919050565b611109816110ee565b82525050565b60006020820190506111246000830184611100565b92915050565b6000815190506111398161076c565b92915050565b60006020828403121561115557611154610758565b5b60006111638482850161112a565b91505092915050565b7f4e6f20766f74696e6720706f7765720000000000000000000000000000000000600082015250565b60006111a2600f836107d0565b91506111ad8261116c565b602082019050919050565b600060208201905081810360008301526111d181611195565b9050919050565b6111e181610afd565b82525050565b60006040820190506111fc60008301856111d8565b6112096020830184610855565b939250505056fea26469706673582212206f7ce02f33ad2e3b8d67793ee893b09e9281fc3995b40b1a07be0e526ba880ae64736f6c634300081c0033",
  "linkReferences": {},
  "deployedLinkReferences": {}
}