{
  "_format": "hh-sol-artifact-1",
  "contractName": "GovToken",
  "sourceName": "contracts/GovToken.sol",
  "abi": [
    {
      "inputs": [],
      "stateMutability": "nonpayable",
      "type": "constructor"
    },
    {
      "inputs": [
        {
          "internalType": "address",
          "name": "spender",
          "type": "address"
        },
        {
          "internalType": "uint256",
          "name": "allowance",
          "type": "uint256"
        },
        {
          "internalType": "uint256",
          "name": "needed",
          "type": "uint256"
        }
      ],
      "name": "ERC20InsufficientAllowance",
      "type": "error"
    },
    {
      "inputs": [
        {
          "internalType": "address",
          "name": "sender",
          "type": "address"
        },
        {
          "internalType": "uint256",
          "name": "balance",
          "type": "uint256"
        },
        {
          "internalType": "uint256",
          "name": "needed",
          "type": "uint256"
        }
      ],
      "name": "ERC20InsufficientBalance",
      "type": "error"
    },
    {
      "inputs": [
        {
          "internalType": "address",
          "name": "approver",
          "type": "address"
        }
      ],
      "name": "ERC20InvalidApprover",
      "type": "error"
    },
    {
      "inputs": [
        {
          "internalType": "address",
          "name": "receiver",
          "type": "address"
        }
      ],
      "name": "ERC20InvalidReceiver",
      "type": "error"
    },
    {
      "inputs": [
        {
          "internalType": "address",
          "name": "sender",
          "type": "address"
        }
      ],
      "name": "ERC20InvalidSender",
      "type": "error"
    },
    {
      "inputs": [
        {
          "internalType": "address",
          "name": "spender",
          "type": "address"
        }
      ],
      "name": "ERC20InvalidSpender",
      "type": "error"
    },
    {
      "inputs": [],
      "name": "InvalidInitialization",
      "type": "error"
    },
    {
      "inputs": [],
      "name": "NotInitializing",
      "type": "error"
    },
    {
      "inputs": [
        {
          "internalType": "address",
          "name": "owner",
          "type": "address"
        }
      ],
      "name": "OwnableInvalidOwner",
      "type": "error"
    },
    {
      "inputs": [
        {
          "internalType": "address",
          "name": "account",
          "type": "address"
        }
      ],
      "name": "OwnableUnauthorizedAccount",
      "type": "error"
    },
    {
      "anonymous": false,
      "inputs": [
        {
          "indexed": true,
          "internalType": "address",
          "name": "owner",
          "type": "address"
        },
        {
          "indexed": true,
          "internalType": "address",
          "name": "spender",
          "type": "address"
        },
        {
          "indexed": false,
          "internalType": "uint256",
          "name": "value",
          "type": "uint256"
        }
      ],
      "name": "Approval",
      "type": "event"
    },
    {
      "anonymous": false,
      "inputs": [
        {
          "indexed": true,
          "internalType": "address",
          "name": "to",
          "type": "address"
        },
        {
          "indexed": false,
          "internalType": "uint256",
          "name": "amount",
          "type": "uint256"
        }
      ],
      "name": "GovTokenMinted",
      "type": "event"
    },
    {
      "anonymous": false,
      "inputs": [
        {
          "indexed": false,
          "internalType": "uint64",
          "name": "version",
          "type": "uint64"
        }
      ],
      "name": "Initialized",
      "type": "event"
    },
    {
      "anonymous": false,
      "inputs": [
        {
          "indexed": true,
          "internalType": "address",
          "name": "previousOwner",
          "type": "address"
        },
        {
          "indexed": true,
          "internalType": "address",
          "name": "newOwner",
          "type": "address"
        }
      ],
      "name": "OwnershipTransferred",
      "type": "event"
    },
    {
      "anonymous": false,
      "inputs": [
        {
          "indexed": true,
          "internalType": "address",
          "name": "stakingContract",
          "type": "address"
        }
      ],
      "name": "StakingContractSet",
      "type": "event"
    },
    {
      "anonymous": false,
      "inputs": [
        {
          "indexed": true,
          "internalType": "address",
          "name": "from",
          "type": "address"
        },
        {
          "indexed": true,
          "internalType": "address",
          "name": "to",
          "type": "address"
        },
        {
          "indexed": false,
          "internalType": "uint256",
          "name": "value",
          "type": "uint256"
        }
      ],
      "name": "Transfer",
      "type": "event"
    },
    {
      "inputs": [
        {
          "internalType": "address",
          "name": "owner",
          "type": "address"
        },
        {
          "internalType": "address",
          "name": "spender",
          "type": "address"
        }
      ],
      "name": "allowance",
      "outputs": [
        {
          "internalType": "uint256",
          "name": "",
          "type": "uint256"
        }
      ],
      "stateMutability": "view",
      "type": "function"
    },
    {
      "inputs": [
        {
          "internalType": "address",
          "name": "spender",
          "type": "address"
        },
        {
          "internalType": "uint256",
          "name": "value",
          "type": "uint256"
        }
      ],
      "name": "approve",
      "outputs": [
        {
          "internalType": "bool",
          "name": "",
          "type": "bool"
        }
      ],
      "stateMutability": "nonpayable",
      "type": "function"
    },
    {
      "inputs": [
        {
          "internalType": "address",
          "name": "account",
          "type": "address"
        }
      ],
      "name": "balanceOf",
      "outputs": [
        {
          "internalType": "uint256",
          "name": "",
          "type": "uint256"
        }
      ],
      "stateMutability": "view",
      "type": "function"
    },
    {
      "inputs": [],
      "name": "decimals",
      "outputs": [
        {
          "internalType": "uint8",
          "name": "",
          "type": "uint8"
        }
      ],
      "stateMutability": "view",
      "type": "function"
    },
    {
      "inputs": [
        {
          "internalType": "address",
          "name": "initialOwner",
          "type": "address"
        }
      ],
      "name": "initialize",
      "outputs": [],
      "stateMutability": "nonpayable",
      "type": "function"
    },
    {
      "inputs": [
        {
          "internalType": "address",
          "name": "to",
          "type": "address"
        },
        {
          "internalType": "uint256",
          "name": "amount",
          "type": "uint256"
        }
      ],
      "name": "mint",
      "outputs": [],
      "stateMutability": "nonpayable",
      "type": "function"
    },
    {
      "inputs": [],
      "name": "name",
      "outputs": [
        {
          "internalType": "string",
          "name": "",
          "type": "string"
        }
      ],
      "stateMutability": "view",
      "type": "function"
    },
    {
      "inputs": [],
      "name": "owner",
      "outputs": [
        {
          "internalType": "address",
          "name": "",
          "type": "address"
        }
      ],
      "stateMutability": "view",
      "type": "function"
    },
    {
      "inputs": [],
      "name": "renounceOwnership",
      "outputs": [],
      "stateMutability": "nonpayable",
      "type": "function"
    },
    {
      "inputs": [
        {
          "internalType": "address",
          "name": "_stakingContract",
          "type": "address"
        }
      ],
      "name": "setStakingContract",
      "outputs": [],
      "stateMutability": "nonpayable",
      "type": "function"
    },
    {
      "inputs": [],
      "name": "stakingContract",
      "outputs": [
        {
          "internalType": "address",
          "name": "",
          "type": "address"
        }
      ],
      "stateMutability": "view",
      "type": "function"
    },
    {
      "inputs": [],
      "name": "symbol",
      "outputs": [
        {
          "internalType": "string",
          "name": "",
          "type": "string"
        }
      ],
      "stateMutability": "view",
      "type": "function"
    },
    {
      "inputs": [],
      "name": "totalSupply",
      "outputs": [
        {
          "internalType": "uint256",
          "name": "",
          "type": "uint256"
        }
      ],
      "stateMutability": "view",
      "type": "function"
    },
    {
      "inputs": [
        {
          "internalType": "address",
          "name": "to",
          "type": "address"
        },
        {
          "internalType": "uint256",
          "name": "value",
          "type": "uint256"
        }
      ],
      "name": "transfer",
      "outputs": [
        {
          "internalType": "bool",
          "name": "",
          "type": "bool"
        }
      ],
      "stateMutability": "nonpayable",
      "type": "function"
    },
    {
      "inputs": [
        {
          "internalType": "address",
          "name": "from",
          "type": "address"
        },
        {
          "internalType": "address",
          "name": "to",
          "type": "address"
        },
        {
          "internalType": "uint256",
          "name": "value",
          "type": "uint256"
        }
      ],
      "name": "transferFrom",
      "outputs": [
        {
          "internalType": "bool",
          "name": "",
          "type": "bool"
        }
      ],
      "stateMutability": "nonpayable",
      "type": "function"
    },
    {
      "inputs": [
        {
          "internalType": "address",
          "name": "newOwner",
          "type": "address"
        }
      ],
      "name": "transferOwnership",
      "outputs": [],
      "stateMutability": "nonpayable",
      "type": "function"
    }
  ],
  "bytecode": "0x608060405234801561001057600080fd5b5061001f61002460201b60201c565b6101ab565b600061003461012860201b60201c565b90508060000160089054906101000a900460ff161561007f576040517ff92ee8a900000000000000000000000000000000000000000000000000000000815260040160405180910390fd5b67ffffffffffffffff80168160000160009054906101000a900467ffffffffffffffff1667ffffffffffffffff16146101255767ffffffffffffffff8160000160006101000a81548167ffffffffffffffff021916908367ffffffffffffffff1602179055507fc7f505b2f371ae2175ee4913f4499e1f2633a7b5936321eed1cdaeb6115181d267ffffffffffffffff60405161011c9190610190565b60405180910390a15b50565b60008061013961014260201b60201c565b90508091505090565b60007ff0c57e16840df040f15088dc2f81fe391c3923bec73e23a9662efc9c229c6a0060001b905090565b600067ffffffffffffffff82169050919050565b61018a8161016d565b82525050565b60006020820190506101a56000830184610181565b92915050565b611c76806101ba6000396000f3fe608060405234801561001057600080fd5b50600436106101005760003560e01c80638da5cb5b11610097578063c4d66de811610066578063c4d66de81461029d578063dd62ed3e146102b9578063ee99205c146102e9578063f2fde38b1461030757610100565b80638da5cb5b1461021557806395d89b41146102335780639dd373b914610251578063a9059cbb1461026d57610100565b8063313ce567116100d3578063313ce567146101a157806340c10f19146101bf57806370a08231146101db578063715018a61461020b57610100565b806306fdde0314610105578063095ea7b31461012357806318160ddd1461015357806323b872dd14610171575b600080fd5b61010d610323565b60405161011a91906114db565b60405180910390f35b61013d60048036038101906101389190611596565b6103c4565b60405161014a91906115f1565b60405180910390f35b61015b6103e7565b604051610168919061161b565b60405180910390f35b61018b60048036038101906101869190611636565b6103ff565b60405161019891906115f1565b60405180910390f35b6101a961042e565b6040516101b691906116a5565b60405180910390f35b6101d960048036038101906101d49190611596565b610437565b005b6101f560048036038101906101f091906116c0565b610590565b604051610202919061161b565b60405180910390f35b6102136105e7565b005b61021d6105fb565b60405161022a91906116fc565b60405180910390f35b61023b610633565b60405161024891906114db565b60405180910390f35b61026b600480360381019061026691906116c0565b6106d4565b005b61028760048036038101906102829190611596565b610762565b60405161029491906115f1565b60405180910390f35b6102b760048036038101906102b291906116c0565b610785565b005b6102d360048036038101906102ce9190611717565b610988565b6040516102e0919061161b565b60405180910390f35b6102f1610a1d565b6040516102fe91906116fc565b60405180910390f35b610321600480360381019061031c91906116c0565b610a41565b005b6060600061032f610ac7565b905080600301805461034090611786565b80601f016020809104026020016040519081016040528092919081815260200182805461036c90611786565b80156103b95780601f1061038e576101008083540402835291602001916103b9565b820191906000526020600020905b81548152906001019060200180831161039c57829003601f168201915b505050505091505090565b6000806103cf610aef565b90506103dc818585610af7565b600191505092915050565b6000806103f2610ac7565b9050806002015491505090565b60008061040a610aef565b9050610417858285610b09565b610422858585610b9e565b60019150509392505050565b60006012905090565b60008054906101000a900473ffffffffffffffffffffffffffffffffffffffff1673ffffffffffffffffffffffffffffffffffffffff163373ffffffffffffffffffffffffffffffffffffffff16146104c5576040517f08c379a00000000000000000000000000000000000000000000000000000000081526004016104bc90611803565b60405180910390fd5b600073ffffffffffffffffffffffffffffffffffffffff168273ffffffffffffffffffffffffffffffffffffffff1603610534576040517f08c379a000000000000000000000000000000000000000000000000000000000815260040161052b9061186f565b60405180910390fd5b61053e8282610c92565b8173ffffffffffffffffffffffffffffffffffffffff167f5a16b3ff5016fce9b1a682699d06d8b0a8abfc4e6107301b188313141f9467ed82604051610584919061161b565b60405180910390a25050565b60008061059b610ac7565b90508060000160008473ffffffffffffffffffffffffffffffffffffffff1673ffffffffffffffffffffffffffffffffffffffff16815260200190815260200160002054915050919050565b6105ef610d14565b6105f96000610d9b565b565b600080610606610e72565b90508060000160009054906101000a900473ffffffffffffffffffffffffffffffffffffffff1691505090565b6060600061063f610ac7565b905080600401805461065090611786565b80601f016020809104026020016040519081016040528092919081815260200182805461067c90611786565b80156106c95780601f1061069e576101008083540402835291602001916106c9565b820191906000526020600020905b8154815290600101906020018083116106ac57829003601f168201915b505050505091505090565b6106dc610d14565b806000806101000a81548173ffffffffffffffffffffffffffffffffffffffff021916908373ffffffffffffffffffffffffffffffffffffffff1602179055508073ffffffffffffffffffffffffffffffffffffffff167f1253844b0fff3da7dd2829de816c9b4f94c238cf2bf6eb72c02c7d6f2b53beac60405160405180910390a250565b60008061076d610aef565b905061077a818585610b9e565b600191505092915050565b600061078f610e9a565b905060008160000160089054906101000a900460ff1615905060008260000160009054906101000a900467ffffffffffffffff1690506000808267ffffffffffffffff161480156107dd5750825b9050600060018367ffffffffffffffff16148015610812575060003073ffffffffffffffffffffffffffffffffffffffff163b145b905081158015610820575080155b15610857576040517ff92ee8a900000000000000000000000000000000000000000000000000000000815260040160405180910390fd5b60018560000160006101000a81548167ffffffffffffffff021916908367ffffffffffffffff16021790555083156108a75760018560000160086101000a81548160ff0219169083151502179055505b61091b6040518060400160405280600881526020017f476f76546f6b656e0000000000000000000000000000000000000000000000008152506040518060400160405280600381526020017f474f560000000000000000000000000000000000000000000000000000000000815250610eae565b61092486610ec4565b83156109805760008560000160086101000a81548160ff0219169083151502179055507fc7f505b2f371ae2175ee4913f4499e1f2633a7b5936321eed1cdaeb6115181d2600160405161097791906118e8565b60405180910390a15b505050505050565b600080610993610ac7565b90508060010160008573ffffffffffffffffffffffffffffffffffffffff1673ffffffffffffffffffffffffffffffffffffffff16815260200190815260200160002060008473ffffffffffffffffffffffffffffffffffffffff1673ffffffffffffffffffffffffffffffffffffffff1681526020019081526020016000205491505092915050565b60008054906101000a900473ffffffffffffffffffffffffffffffffffffffff1681565b610a49610d14565b600073ffffffffffffffffffffffffffffffffffffffff168173ffffffffffffffffffffffffffffffffffffffff1603610abb5760006040517f1e4fbdf7000000000000000000000000000000000000000000000000000000008152600401610ab291906116fc565b60405180910390fd5b610ac481610d9b565b50565b60007f52c63247e1f47db19d5ce0460030c497f067ca4cebf71ba98eeadabe20bace00905090565b600033905090565b610b048383836001610ed8565b505050565b6000610b158484610988565b90507fffffffffffffffffffffffffffffffffffffffffffffffffffffffffffffffff811015610b985781811015610b88578281836040517ffb8f41b2000000000000000000000000000000000000000000000000000000008152600401610b7f93929190611903565b60405180910390fd5b610b9784848484036000610ed8565b5b50505050565b600073ffffffffffffffffffffffffffffffffffffffff168373ffffffffffffffffffffffffffffffffffffffff1603610c105760006040517f96c6fd1e000000000000000000000000000000000000000000000000000000008152600401610c0791906116fc565b60405180910390fd5b600073ffffffffffffffffffffffffffffffffffffffff168273ffffffffffffffffffffffffffffffffffffffff1603610c825760006040517fec442f05000000000000000000000000000000000000000000000000000000008152600401610c7991906116fc565b60405180910390fd5b610c8d8383836110be565b505050565b600073ffffffffffffffffffffffffffffffffffffffff168273ffffffffffffffffffffffffffffffffffffffff1603610d045760006040517fec442f05000000000000000000000000000000000000000000000000000000008152600401610cfb91906116fc565b60405180910390fd5b610d10600083836110be565b5050565b610d1c610aef565b73ffffffffffffffffffffffffffffffffffffffff16610d3a6105fb565b73ffffffffffffffffffffffffffffffffffffffff1614610d9957610d5d610aef565b6040517f118cdaa7000000000000000000000000000000000000000000000000000000008152600401610d9091906116fc565b60405180910390fd5b565b6000610da5610e72565b905060008160000160009054906101000a900473ffffffffffffffffffffffffffffffffffffffff169050828260000160006101000a81548173ffffffffffffffffffffffffffffffffffffffff021916908373ffffffffffffffffffffffffffffffffffffffff1602179055508273ffffffffffffffffffffffffffffffffffffffff168173ffffffffffffffffffffffffffffffffffffffff167f8be0079c531659141344cd1fd0a4f28419497f9722a3daafe3b4186f6b6457e060405160405180910390a3505050565b60007f9016d09d72d40fdae2fd8ceac6b6234c7706214fd39c1cd1e609a0528c199300905090565b600080610ea56112fd565b90508091505090565b610eb6611328565b610ec08282611368565b5050565b610ecc611328565b610ed5816113a5565b50565b6000610ee2610ac7565b9050600073ffffffffffffffffffffffffffffffffffffffff168573ffffffffffffffffffffffffffffffffffffffff1603610f565760006040517fe602df05000000000000000000000000000000000000000000000000000000008152600401610f4d91906116fc565b60405180910390fd5b600073ffffffffffffffffffffffffffffffffffffffff168473ffffffffffffffffffffffffffffffffffffffff1603610fc85760006040517f94280d62000000000000000000000000000000000000000000000000000000008152600401610fbf91906116fc565b60405180910390fd5b828160010160008773ffffffffffffffffffffffffffffffffffffffff1673ffffffffffffffffffffffffffffffffffffffff16815260200190815260200160002060008673ffffffffffffffffffffffffffffffffffffffff1673ffffffffffffffffffffffffffffffffffffffff1681526020019081526020016000208190555081156110b7578373ffffffffffffffffffffffffffffffffffffffff168573ffffffffffffffffffffffffffffffffffffffff167f8c5be1e5ebec7d5bd14f71427d1e84f3dd0314c0f7b2291e5b200ac8c7c3b925856040516110ae919061161b565b60405180910390a35b5050505050565b60006110c8610ac7565b9050600073ffffffffffffffffffffffffffffffffffffffff168473ffffffffffffffffffffffffffffffffffffffff160361111e57818160020160008282546111129190611969565b925050819055506111f7565b60008160000160008673ffffffffffffffffffffffffffffffffffffffff1673ffffffffffffffffffffffffffffffffffffffff168152602001908152602001600020549050828110156111ad578481846040517fe450d38c0000000000000000000000000000000000000000000000000000000081526004016111a493929190611903565b60405180910390fd5b8281038260000160008773ffffffffffffffffffffffffffffffffffffffff1673ffffffffffffffffffffffffffffffffffffffff16815260200190815260200160002081905550505b600073ffffffffffffffffffffffffffffffffffffffff168373ffffffffffffffffffffffffffffffffffffffff160361124257818160020160008282540392505081905550611292565b818160000160008573ffffffffffffffffffffffffffffffffffffffff1673ffffffffffffffffffffffffffffffffffffffff168152602001908152602001600020600082825401925050819055505b8273ffffffffffffffffffffffffffffffffffffffff168473ffffffffffffffffffffffffffffffffffffffff167fddf252ad1be2c89b69c2b068fc378daa952ba7f163c4a11628f55a4df523b3ef846040516112ef919061161b565b60405180910390a350505050565b60007ff0c57e16840df040f15088dc2f81fe391c3923bec73e23a9662efc9c229c6a0060001b905090565b61133061142b565b611366576040517fd7e6bcf800000000000000000000000000000000000000000000000000000000815260040160405180910390fd5b565b611370611328565b600061137a610ac7565b90508281600301908161138d9190611b6e565b508181600401908161139f9190611b6e565b50505050565b6113ad611328565b600073ffffffffffffffffffffffffffffffffffffffff168173ffffffffffffffffffffffffffffffffffffffff160361141f5760006040517f1e4fbdf700000000000000000000000000000000000000000000000000000000815260040161141691906116fc565b60405180910390fd5b61142881610d9b565b50565b6000611435610e9a565b60000160089054906101000a900460ff16905090565b600081519050919050565b600082825260208201905092915050565b60005b8381101561148557808201518184015260208101905061146a565b60008484015250505050565b6000601f19601f8301169050919050565b60006114ad8261144b565b6114b78185611456565b93506114c7818560208601611467565b6114d081611491565b840191505092915050565b600060208201905081810360008301526114f581846114a2565b905092915050565b600080fd5b600073ffffffffffffffffffffffffffffffffffffffff82169050919050565b600061152d82611502565b9050919050565b61153d81611522565b811461154857600080fd5b50565b60008135905061155a81611534565b92915050565b6000819050919050565b61157381611560565b811461157e57600080fd5b50565b6000813590506115908161156a565b92915050565b600080604083850312156115ad576115ac6114fd565b5b60006115bb8582860161154b565b92505060206115cc85828601611581565b9150509250929050565b60008115159050919050565b6115eb816115d6565b82525050565b600060208201905061160660008301846115e2565b92915050565b61161581611560565b82525050565b6000602082019050611630600083018461160c565b92915050565b60008060006060848603121561164f5761164e6114fd565b5b600061165d8682870161154b565b935050602061166e8682870161154b565b925050604061167f86828701611581565b9150509250925092565b600060ff82169050919050565b61169f81611689565b82525050565b60006020820190506116ba6000830184611696565b92915050565b6000602082840312156116d6576116d56114fd565b5b60006116e48482850161154b565b91505092915050565b6116f681611522565b82525050565b600060208201905061171160008301846116ed565b92915050565b6000806040838503121561172e5761172d6114fd565b5b600061173c8582860161154b565b925050602061174d8582860161154b565b9150509250929050565b7f4e487b7100000000000000000000000000000000000000000000000000000000600052602260045260246000fd5b6000600282049050600182168061179e57607f821691505b6020821081036117b1576117b0611757565b5b50919050565b7f4e6f7420617574686f72697a6564000000000000000000000000000000000000600082015250565b60006117ed600e83611456565b91506117f8826117b7565b602082019050919050565b6000602082019050818103600083015261181c816117e0565b9050919050565b7f43616e6e6f74206d696e7420746f207a65726f20616464726573730000000000600082015250565b6000611859601b83611456565b915061186482611823565b602082019050919050565b600060208201905081810360008301526118888161184c565b9050919050565b6000819050919050565b600067ffffffffffffffff82169050919050565b6000819050919050565b60006118d26118cd6118c88461188f565b6118ad565b611899565b9050919050565b6118e2816118b7565b82525050565b60006020820190506118fd60008301846118d9565b92915050565b600060608201905061191860008301866116ed565b611925602083018561160c565b611932604083018461160c565b949350505050565b7f4e487b7100000000000000000000000000000000000000000000000000000000600052601160045260246000fd5b600061197482611560565b915061197f83611560565b92508282019050808211156119975761199661193a565b5b92915050565b7f4e487b7100000000000000000000000000000000000000000000000000000000600052604160045260246000fd5b60008190508160005260206000209050919050565b60006020601f8301049050919050565b600082821b905092915050565b600060088302611a2e7fffffffffffffffffffffffffffffffffffffffffffffffffffffffffffffffff826119f1565b611a3886836119f1565b95508019841693508086168417925050509392505050565b6000611a6b611a66611a6184611560565b6118ad565b611560565b9050919050565b6000819050919050565b611a8583611a50565b611a99611a9182611a72565b8484546119fe565b825550505050565b600090565b611aae611aa1565b611ab9818484611a7c565b505050565b5b81811015611add57611ad2600082611aa6565b600181019050611abf565b5050565b601f821115611b2257611af3816119cc565b611afc846119e1565b81016020851015611b0b578190505b611b1f611b17856119e1565b830182611abe565b50505b505050565b600082821c905092915050565b6000611b4560001984600802611b27565b1980831691505092915050565b6000611b5e8383611b34565b9150826002028217905092915050565b611b778261144b565b67ffffffffffffffff811115611b9057611b8f61199d565b5b611b9a8254611786565b611ba5828285611ae1565b600060209050601f831160018114611bd85760008415611bc6578287015190505b611bd08582611b52565b865550611c38565b601f198416611be6866119cc565b60005b82811015611c0e57848901518255600182019150602085019450602081019050611be9565b86831015611c2b5784890151611c27601f891682611b34565b8355505b6001600288020188555050505b50505050505056fea26469706673582212209e7ad5781ff13f2972dd38b0d1f7ea7d76b42469fe55f3cecc8483a4e237591764736f6c634300081c0033",
  "linkReferences": {},
  "deployedLinkReferences": {}
}