{
  "_format": "hh-sol-artifact-1",
  "contractName": "GovStaking",
  "sourceName": "contracts/GovStaking.sol",
  "abi": [
    {
      "inputs": [
        {
          "internalType": "contract GovToken",
          "name": "_govToken",
          "type": "address"
        },
        {
          "internalType": "uint256",
          "name": "_rewardRatePerSecond",
          "type": "uint256"
        }
      ],
      "stateMutability": "nonpayable",
      "type": "constructor"
    },
    {
      "inputs": [],
      "name": "ReentrancyGuardReentrantCall",
      "type": "error"
    },
    {
      "anonymous": false,
      "inputs": [
        {
          "indexed": true,
          "internalType": "address",
          "name": "user",
          "type": "address"
        },
        {
          "indexed": false,
          "internalType": "uint256",
          "name": "amount",
          "type": "uint256"
        }
      ],
      "name": "RewardClaimed",
      "type": "event"
    },
    {
      "anonymous": false,
      "inputs": [
        {
          "indexed": true,
          "internalType": "address",
          "name": "user",
          "type": "address"
        },
        {
          "indexed": false,
          "internalType": "uint256",
          "name": "amount",
          "type": "uint256"
        }
      ],
      "name": "Staked",
      "type": "event"
    },
    {
      "anonymous": false,
      "inputs": [
        {
          "indexed": true,
          "internalType": "address",
          "name": "user",
          "type": "address"
        },
        {
          "indexed": false,
          "internalType": "uint256",
          "name": "amount",
          "type": "uint256"
        }
      ],
      "name": "Unstaked",
      "type": "event"
    },
    {
      "inputs": [],
      "name": "claimGovToken",
      "outputs": [],
      "stateMutability": "nonpayable",
      "type": "function"
    },
    {
      "inputs": [],
      "name": "govToken",
      "outputs": [
        {
          "internalType": "contract GovToken",
          "name": "",
          "type": "address"
        }
      ],
      "stateMutability": "view",
      "type": "function"
    },
    {
      "inputs": [],
      "name": "rewardRatePerSecond",
      "outputs": [
        {
          "internalType": "uint256",
          "name": "",
          "type": "uint256"
        }
      ],
      "stateMutability": "view",
      "type": "function"
    },
    {
      "inputs": [],
      "name": "stake",
      "outputs": [],
      "stateMutability": "payable",
      "type": "function"
    },
    {
      "inputs": [
        {
          "internalType": "address",
          "name": "",
          "type": "address"
        }
      ],
      "name": "stakes",
      "outputs": [
        {
          "internalType": "uint256",
          "name": "amount",
          "type": "uint256"
        },
        {
          "internalType": "uint256",
          "name": "lastClaimed",
          "type": "uint256"
        }
      ],
      "stateMutability": "view",
      "type": "function"
    },
    {
      "inputs": [],
      "name": "unstake",
      "outputs": [],
      "stateMutability": "nonpayable",
      "type": "function"
    }
  ],
  "bytecode": "0x608060405234801561001057600080fd5b50604051610ca0380380610ca083398181016040528101906100329190610134565b600160008190555081600160006101000a81548173ffffffffffffffffffffffffffffffffffffffff021916908373ffffffffffffffffffffffffffffffffffffffff160217905550806002819055505050610174565b600080fd5b600073ffffffffffffffffffffffffffffffffffffffff82169050919050565b60006100b98261008e565b9050919050565b60006100cb826100ae565b9050919050565b6100db816100c0565b81146100e657600080fd5b50565b6000815190506100f8816100d2565b92915050565b6000819050919050565b610111816100fe565b811461011c57600080fd5b50565b60008151905061012e81610108565b92915050565b6000806040838503121561014b5761014a610089565b5b6000610159858286016100e9565b925050602061016a8582860161011f565b9150509250929050565b610b1d806101836000396000f3fe6080604052600436106100555760003560e01c806305268cff1461005a57806316934fc4146100855780632361e21b146100c35780632def6620146100da5780633a4b66f1146100f15780635d773b2c146100fb575b600080fd5b34801561006657600080fd5b5061006f610126565b60405161007c91906106f3565b60405180910390f35b34801561009157600080fd5b506100ac60048036038101906100a79190610751565b61014c565b6040516100ba929190610797565b60405180910390f35b3480156100cf57600080fd5b506100d8610170565b005b3480156100e657600080fd5b506100ef6101dd565b005b6100f96103c6565b005b34801561010757600080fd5b506101106104d8565b60405161011d91906107c0565b60405180910390f35b600160009054906101000a900473ffffffffffffffffffffffffffffffffffffffff1681565b60036020528060005260406000206000915090508060000154908060010154905082565b6101786104de565b6000610182610524565b90503373ffffffffffffffffffffffffffffffffffffffff167f106f923f993c2149d49b4255ff723acafa1f2d94393f561d3eda32ae348f7241826040516101ca91906107c0565b60405180910390a2506101db61066a565b565b6101e56104de565b6000600360003373ffffffffffffffffffffffffffffffffffffffff1673ffffffffffffffffffffffffffffffffffffffff1681526020019081526020016000206000015490506000811161026f576040517f08c379a000000000000000000000000000000000000000000000000000000000815260040161026690610838565b60405180910390fd5b610277610524565b506000600360003373ffffffffffffffffffffffffffffffffffffffff1673ffffffffffffffffffffffffffffffffffffffff1681526020019081526020016000206000018190555060003373ffffffffffffffffffffffffffffffffffffffff16826040516102e690610889565b60006040518083038185875af1925050503d8060008114610323576040519150601f19603f3d011682016040523d82523d6000602084013e610328565b606091505b505090508061036c576040517f08c379a0000000000000000000000000000000000000000000000000000000008152600401610363906108ea565b60405180910390fd5b3373ffffffffffffffffffffffffffffffffffffffff167f0f5bb82176feb1b5e747e28471aa92156a04d9f3ab9f45f28e2d704232b93f75836040516103b291906107c0565b60405180910390a250506103c461066a565b565b60003411610409576040517f08c379a000000000000000000000000000000000000000000000000000000000815260040161040090610956565b60405180910390fd5b6000600360003373ffffffffffffffffffffffffffffffffffffffff1673ffffffffffffffffffffffffffffffffffffffff168152602001908152602001600020905060008160000154111561046357610461610524565b505b3481600001600082825461047791906109a5565b925050819055504281600101819055503373ffffffffffffffffffffffffffffffffffffffff167f9e71bc8eea02a63969f509818f2dafb9254532904319f9dbda79b67bd34a5f3d346040516104cd91906107c0565b60405180910390a250565b60025481565b60026000540361051a576040517f3ee5aeb500000000000000000000000000000000000000000000000000000000815260040160405180910390fd5b6002600081905550565b600080600360003373ffffffffffffffffffffffffffffffffffffffff1673ffffffffffffffffffffffffffffffffffffffff1681526020019081526020016000209050600081600101544261057a91906109d9565b905060008083600001541180156105915750600082115b1561065857670de0b6b3a76400008360000154600254846105b29190610a0d565b6105bc9190610a0d565b6105c69190610a7e565b9050600160009054906101000a900473ffffffffffffffffffffffffffffffffffffffff1673ffffffffffffffffffffffffffffffffffffffff166340c10f1933836040518363ffffffff1660e01b8152600401610625929190610abe565b600060405180830381600087803b15801561063f57600080fd5b505af1158015610653573d6000803e3d6000fd5b505050505b42836001018190555080935050505090565b6001600081905550565b600073ffffffffffffffffffffffffffffffffffffffff82169050919050565b6000819050919050565b60006106b96106b46106af84610674565b610694565b610674565b9050919050565b60006106cb8261069e565b9050919050565b60006106dd826106c0565b9050919050565b6106ed816106d2565b82525050565b600060208201905061070860008301846106e4565b92915050565b600080fd5b600061071e82610674565b9050919050565b61072e81610713565b811461073957600080fd5b50565b60008135905061074b81610725565b92915050565b6000602082840312156107675761076661070e565b5b60006107758482850161073c565b91505092915050565b6000819050919050565b6107918161077e565b82525050565b60006040820190506107ac6000830185610788565b6107b96020830184610788565b9392505050565b60006020820190506107d56000830184610788565b92915050565b600082825260208201905092915050565b7f4552523430323a20556e7374616b650000000000000000000000000000000000600082015250565b6000610822600f836107db565b915061082d826107ec565b602082019050919050565b6000602082019050818103600083015261085181610815565b9050919050565b600081905092915050565b50565b6000610873600083610858565b915061087e82610863565b600082019050919050565b600061089482610866565b9150819050919050565b7f455448207472616e73666572206661696c656400000000000000000000000000600082015250565b60006108d46013836107db565b91506108df8261089e565b602082019050919050565b60006020820190508181036000830152610903816108c7565b9050919050565b7f5374616b65203e20300000000000000000000000000000000000000000000000600082015250565b60006109406009836107db565b915061094b8261090a565b602082019050919050565b6000602082019050818103600083015261096f81610933565b9050919050565b7f4e487b7100000000000000000000000000000000000000000000000000000000600052601160045260246000fd5b60006109b08261077e565b91506109bb8361077e565b92508282019050808211156109d3576109d2610976565b5b92915050565b60006109e48261077e565b91506109ef8361077e565b9250828203905081811115610a0757610a06610976565b5b92915050565b6000610a188261077e565b9150610a238361077e565b9250828202610a318161077e565b91508282048414831517610a4857610a47610976565b5b5092915050565b7f4e487b7100000000000000000000000000000000000000000000000000000000600052601260045260246000fd5b6000610a898261077e565b9150610a948361077e565b925082610aa457610aa3610a4f565b5b828204905092915050565b610ab881610713565b82525050565b6000604082019050610ad36000830185610aaf565b610ae06020830184610788565b939250505056fea2646970667358221220ed32eba1cbd687658b4d854186e6083c0bb462b9cda014183f3840c6c64ac3ee64736f6c634300081c0033",
  "linkReferences": {},
  "deployedLinkReferences": {}
}