{
  "_format": "hh-sol-artifact-1",
  "contractName": "DAOGovernance",
  "sourceName": "contracts/DAOGovernance.sol",
  "abi": [
    {
      "inputs": [
        {
          "internalType": "contract GovToken",
          "name": "_govToken",
          "type": "address"
        }
      ],
      "stateMutability": "nonpayable",
      "type": "constructor"
    },
    {
      "anonymous": false,
      "inputs": [
        {
          "indexed": true,
          "internalType": "uint256",
          "name": "proposalId",
          "type": "uint256"
        },
        {
          "indexed": false,
          "internalType": "uint256",
          "name": "deadline",
          "type": "uint256"
        }
      ],
      "name": "ProposalCreated",
      "type": "event"
    },
    {
      "anonymous": false,
      "inputs": [
        {
          "indexed": true,
          "internalType": "uint256",
          "name": "proposalId",
          "type": "uint256"
        },
        {
          "indexed": true,
          "internalType": "address",
          "name": "voter",
          "type": "address"
        },
        {
          "indexed": false,
          "internalType": "bool",
          "name": "support",
          "type": "bool"
        },
        {
          "indexed": false,
          "internalType": "uint256",
          "name": "weight",
          "type": "uint256"
        }
      ],
      "name": "Voted",
      "type": "event"
    },
    {
      "inputs": [
        {
          "internalType": "string",
          "name": "_description",
          "type": "string"
        },
        {
          "internalType": "uint256",
          "name": "durationSeconds",
          "type": "uint256"
        }
      ],
      "name": "createProposal",
      "outputs": [],
      "stateMutability": "nonpayable",
      "type": "function"
    },
    {
      "inputs": [
        {
          "internalType": "uint256",
          "name": "proposalId",
          "type": "uint256"
        }
      ],
      "name": "getProposalStatus",
      "outputs": [
        {
          "internalType": "string",
          "name": "status",
          "type": "string"
        }
      ],
      "stateMutability": "view",
      "type": "function"
    },
    {
      "inputs": [],
      "name": "govToken",
      "outputs": [
        {
          "internalType": "contract GovToken",
          "name": "",
          "type": "address"
        }
      ],
      "stateMutability": "view",
      "type": "function"
    },
    {
      "inputs": [],
      "name": "proposalCount",
      "outputs": [
        {
          "internalType": "uint256",
          "name": "",
          "type": "uint256"
        }
      ],
      "stateMutability": "view",
      "type": "function"
    },
    {
      "inputs": [
        {
          "internalType": "uint256",
          "name": "",
          "type": "uint256"
        }
      ],
      "name": "proposals",
      "outputs": [
        {
          "internalType": "string",
          "name": "description",
          "type": "string"
        },
        {
          "internalType": "uint256",
          "name": "deadline",
          "type": "uint256"
        },
        {
          "internalType": "uint256",
          "name": "yesVotes",
          "type": "uint256"
        },
        {
          "internalType": "uint256",
          "name": "noVotes",
          "type": "uint256"
        }
      ],
      "stateMutability": "view",
      "type": "function"
    },
    {
      "inputs": [
        {
          "internalType": "uint256",
          "name": "proposalId",
          "type": "uint256"
        },
        {
          "internalType": "bool",
          "name": "support",
          "type": "bool"
        }
      ],
      "name": "vote",
      "outputs": [],
      "stateMutability": "nonpayable",
      "type": "function"
    }
  ],
  "bytecode": "0x6080604052600060015534801561001557600080fd5b506040516113b83803806113b8833981810160405281019061003791906100f2565b806000806101000a81548173ffffffffffffffffffffffffffffffffffffffff021916908373ffffffffffffffffffffffffffffffffffffffff1602179055505061011f565b600080fd5b600073ffffffffffffffffffffffffffffffffffffffff82169050919050565b60006100ad82610082565b9050919050565b60006100bf826100a2565b9050919050565b6100cf816100b4565b81146100da57600080fd5b50565b6000815190506100ec816100c6565b92915050565b6000602082840312156101085761010761007d565b5b6000610116848285016100dd565b91505092915050565b61128a8061012e6000396000f3fe608060405234801561001057600080fd5b50600436106100625760003560e01c8063013cf08b1461006757806305268cff1461009a57806335facf78146100b8578063401853b7146100d4578063c9d27afe14610104578063da35c66414610120575b600080fd5b610081600480360381019061007c91906107dc565b61013e565b60405161009194939291906108a8565b60405180910390f35b6100a26101f6565b6040516100af9190610973565b60405180910390f35b6100d260048036038101906100cd9190610ac3565b61021a565b005b6100ee60048036038101906100e991906107dc565b6102b4565b6040516100fb9190610b1f565b60405180910390f35b61011e60048036038101906101199190610b79565b6103e6565b005b61012861078c565b6040516101359190610bb9565b60405180910390f35b600260205280600052604060002060009150905080600001805461016190610c03565b80601f016020809104026020016040519081016040528092919081815260200182805461018d90610c03565b80156101da5780601f106101af576101008083540402835291602001916101da565b820191906000526020600020905b8154815290600101906020018083116101bd57829003601f168201915b5050505050908060010154908060020154908060030154905084565b60008054906101000a900473ffffffffffffffffffffffffffffffffffffffff1681565b60006002600060015481526020019081526020016000209050828160000190816102449190610dd6565b5081426102519190610ed7565b81600101819055506001547ffcf3b1aa65a464cef2889608f99e8b8c0f680a4be6c2acb9d961c536a5a9294b826001015460405161028f9190610bb9565b60405180910390a2600160008154809291906102aa90610f0b565b9190505550505050565b606060015482106102fa576040517f08c379a00000000000000000000000000000000000000000000000000000000081526004016102f190610f9f565b60405180910390fd5b600060026000848152602001908152602001600020905080600101544211610357576040517f08c379a000000000000000000000000000000000000000000000000000000000815260040161034e9061100b565b60405180910390fd5b600081600301548260020154119050806103a6576040518060400160405280600681526020017f4661696c656400000000000000000000000000000000000000000000000000008152506103dd565b6040518060400160405280600681526020017f50617373656400000000000000000000000000000000000000000000000000008152505b92505050919050565b600154821061042a576040517f08c379a000000000000000000000000000000000000000000000000000000000815260040161042190610f9f565b60405180910390fd5b60006002600084815260200190815260200160002090508060010154421115610488576040517f08c379a000000000000000000000000000000000000000000000000000000000815260040161047f90611077565b60405180910390fd5b6000600281111561049c5761049b611097565b5b8160040160003373ffffffffffffffffffffffffffffffffffffffff1673ffffffffffffffffffffffffffffffffffffffff16815260200190815260200160002060009054906101000a900460ff1660028111156104fd576104fc611097565b5b1461053d576040517f08c379a000000000000000000000000000000000000000000000000000000000815260040161053490611112565b60405180910390fd5b60008060009054906101000a900473ffffffffffffffffffffffffffffffffffffffff1673ffffffffffffffffffffffffffffffffffffffff166370a08231336040518263ffffffff1660e01b81526004016105999190611153565b602060405180830381865afa1580156105b6573d6000803e3d6000fd5b505050506040513d601f19601f820116820180604052508101906105da9190611183565b90506000811161061f576040517f08c379a0000000000000000000000000000000000000000000000000000000008152600401610616906111fc565b60405180910390fd5b82156106af57808260020160008282546106399190610ed7565b9250508190555060018260040160003373ffffffffffffffffffffffffffffffffffffffff1673ffffffffffffffffffffffffffffffffffffffff16815260200190815260200160002060006101000a81548160ff021916908360028111156106a5576106a4611097565b5b0217905550610735565b808260030160008282546106c39190610ed7565b9250508190555060028260040160003373ffffffffffffffffffffffffffffffffffffffff1673ffffffffffffffffffffffffffffffffffffffff16815260200190815260200160002060006101000a81548160ff0219169083600281111561072f5761072e611097565b5b02179055505b3373ffffffffffffffffffffffffffffffffffffffff16847f7c2de587c00d75474a0c6c6fa96fd3b45dc974cd4e8a75f712bb84c950dce1b5858460405161077e92919061122b565b60405180910390a350505050565b60015481565b6000604051905090565b600080fd5b600080fd5b6000819050919050565b6107b9816107a6565b81146107c457600080fd5b50565b6000813590506107d6816107b0565b92915050565b6000602082840312156107f2576107f161079c565b5b6000610800848285016107c7565b91505092915050565b600081519050919050565b600082825260208201905092915050565b60005b83811015610843578082015181840152602081019050610828565b60008484015250505050565b6000601f19601f8301169050919050565b600061086b82610809565b6108758185610814565b9350610885818560208601610825565b61088e8161084f565b840191505092915050565b6108a2816107a6565b82525050565b600060808201905081810360008301526108c28187610860565b90506108d16020830186610899565b6108de6040830185610899565b6108eb6060830184610899565b95945050505050565b600073ffffffffffffffffffffffffffffffffffffffff82169050919050565b6000819050919050565b600061093961093461092f846108f4565b610914565b6108f4565b9050919050565b600061094b8261091e565b9050919050565b600061095d82610940565b9050919050565b61096d81610952565b82525050565b60006020820190506109886000830184610964565b92915050565b600080fd5b600080fd5b7f4e487b7100000000000000000000000000000000000000000000000000000000600052604160045260246000fd5b6109d08261084f565b810181811067ffffffffffffffff821117156109ef576109ee610998565b5b80604052505050565b6000610a02610792565b9050610a0e82826109c7565b919050565b600067ffffffffffffffff821115610a2e57610a2d610998565b5b610a378261084f565b9050602081019050919050565b82818337600083830152505050565b6000610a66610a6184610a13565b6109f8565b905082815260208101848484011115610a8257610a81610993565b5b610a8d848285610a44565b509392505050565b600082601f830112610aaa57610aa961098e565b5b8135610aba848260208601610a53565b91505092915050565b60008060408385031215610ada57610ad961079c565b5b600083013567ffffffffffffffff811115610af857610af76107a1565b5b610b0485828601610a95565b9250506020610b15858286016107c7565b9150509250929050565b60006020820190508181036000830152610b398184610860565b905092915050565b60008115159050919050565b610b5681610b41565b8114610b6157600080fd5b50565b600081359050610b7381610b4d565b92915050565b60008060408385031215610b9057610b8f61079c565b5b6000610b9e858286016107c7565b9250506020610baf85828601610b64565b9150509250929050565b6000602082019050610bce6000830184610899565b92915050565b7f4e487b7100000000000000000000000000000000000000000000000000000000600052602260045260246000fd5b60006002820490506001821680610c1b57607f821691505b602082108103610c2e57610c2d610bd4565b5b50919050565b60008190508160005260206000209050919050565b60006020601f8301049050919050565b600082821b905092915050565b600060088302610c967fffffffffffffffffffffffffffffffffffffffffffffffffffffffffffffffff82610c59565b610ca08683610c59565b95508019841693508086168417925050509392505050565b6000610cd3610cce610cc9846107a6565b610914565b6107a6565b9050919050565b6000819050919050565b610ced83610cb8565b610d01610cf982610cda565b848454610c66565b825550505050565b600090565b610d16610d09565b610d21818484610ce4565b505050565b5b81811015610d4557610d3a600082610d0e565b600181019050610d27565b5050565b601f821115610d8a57610d5b81610c34565b610d6484610c49565b81016020851015610d73578190505b610d87610d7f85610c49565b830182610d26565b50505b505050565b600082821c905092915050565b6000610dad60001984600802610d8f565b1980831691505092915050565b6000610dc68383610d9c565b9150826002028217905092915050565b610ddf82610809565b67ffffffffffffffff811115610df857610df7610998565b5b610e028254610c03565b610e0d828285610d49565b600060209050601f831160018114610e405760008415610e2e578287015190505b610e388582610dba565b865550610ea0565b601f198416610e4e86610c34565b60005b82811015610e7657848901518255600182019150602085019450602081019050610e51565b86831015610e935784890151610e8f601f891682610d9c565b8355505b6001600288020188555050505b505050505050565b7f4e487b7100000000000000000000000000000000000000000000000000000000600052601160045260246000fd5b6000610ee2826107a6565b9150610eed836107a6565b9250828201905080821115610f0557610f04610ea8565b5b92915050565b6000610f16826107a6565b91507fffffffffffffffffffffffffffffffffffffffffffffffffffffffffffffffff8203610f4857610f47610ea8565b5b600182019050919050565b7f50726f706f73616c20646f6573206e6f74206578697374000000000000000000600082015250565b6000610f89601783610814565b9150610f9482610f53565b602082019050919050565b60006020820190508181036000830152610fb881610f7c565b9050919050565b7f5374696c6c206163746976650000000000000000000000000000000000000000600082015250565b6000610ff5600c83610814565b915061100082610fbf565b602082019050919050565b6000602082019050818103600083015261102481610fe8565b9050919050565b7f566f74696e6720636c6f73656400000000000000000000000000000000000000600082015250565b6000611061600d83610814565b915061106c8261102b565b602082019050919050565b6000602082019050818103600083015261109081611054565b9050919050565b7f4e487b7100000000000000000000000000000000000000000000000000000000600052602160045260246000fd5b7f416c726561647920766f74656400000000000000000000000000000000000000600082015250565b60006110fc600d83610814565b9150611107826110c6565b602082019050919050565b6000602082019050818103600083015261112b816110ef565b9050919050565b600061113d826108f4565b9050919050565b61114d81611132565b82525050565b60006020820190506111686000830184611144565b92915050565b60008151905061117d816107b0565b92915050565b6000602082840312156111995761119861079c565b5b60006111a78482850161116e565b91505092915050565b7f4e6f20766f74696e6720706f7765720000000000000000000000000000000000600082015250565b60006111e6600f83610814565b91506111f1826111b0565b602082019050919050565b60006020820190508181036000830152611215816111d9565b9050919050565b61122581610b41565b82525050565b6000604082019050611240600083018561121c565b61124d6020830184610899565b939250505056fea264697066735822122033bdc6f67e4977cd6bd70a9b84f4855574e8139cf214d7b0b468c3e5bc322dfa64736f6c634300081c0033",
  "linkReferences": {},
  "deployedLinkReferences": {}
}