{
  "_format": "hh-sol-artifact-1",
  "contractName": "DAOGovernance",
  "sourceName": "contracts/DAOGovernance.sol",
  "abi": [
    {
      "inputs": [],
      "stateMutability": "nonpayable",
      "type": "constructor"
    },
    {
      "inputs": [],
      "name": "InvalidInitialization",
      "type": "error"
    },
    {
      "inputs": [],
      "name": "NotInitializing",
      "type": "error"
    },
    {
      "anonymous": false,
      "inputs": [
        {
          "indexed": false,
          "internalType": "uint64",
          "name": "version",
          "type": "uint64"
        }
      ],
      "name": "Initialized",
      "type": "event"
    },
    {
      "anonymous": false,
      "inputs": [
        {
          "indexed": true,
          "internalType": "uint256",
          "name": "proposalId",
          "type": "uint256"
        },
        {
          "indexed": false,
          "internalType": "uint256",
          "name": "deadline",
          "type": "uint256"
        }
      ],
      "name": "ProposalCreated",
      "type": "event"
    },
    {
      "anonymous": false,
      "inputs": [
        {
          "indexed": true,
          "internalType": "uint256",
          "name": "proposalId",
          "type": "uint256"
        },
        {
          "indexed": true,
          "internalType": "address",
          "name": "voter",
          "type": "address"
        },
        {
          "indexed": false,
          "internalType": "bool",
          "name": "support",
          "type": "bool"
        },
        {
          "indexed": false,
          "internalType": "uint256",
          "name": "weight",
          "type": "uint256"
        }
      ],
      "name": "Voted",
      "type": "event"
    },
    {
      "inputs": [
        {
          "internalType": "string",
          "name": "_description",
          "type": "string"
        },
        {
          "internalType": "uint256",
          "name": "durationSeconds",
          "type": "uint256"
        }
      ],
      "name": "createProposal",
      "outputs": [],
      "stateMutability": "nonpayable",
      "type": "function"
    },
    {
      "inputs": [
        {
          "internalType": "uint256",
          "name": "proposalId",
          "type": "uint256"
        }
      ],
      "name": "getProposalStatus",
      "outputs": [
        {
          "internalType": "string",
          "name": "status",
          "type": "string"
        }
      ],
      "stateMutability": "view",
      "type": "function"
    },
    {
      "inputs": [],
      "name": "govToken",
      "outputs": [
        {
          "internalType": "contract GovToken",
          "name": "",
          "type": "address"
        }
      ],
      "stateMutability": "view",
      "type": "function"
    },
    {
      "inputs": [
        {
          "internalType": "address",
          "name": "_govToken",
          "type": "address"
        }
      ],
      "name": "initialize",
      "outputs": [],
      "stateMutability": "nonpayable",
      "type": "function"
    },
    {
      "inputs": [],
      "name": "proposalCount",
      "outputs": [
        {
          "internalType": "uint256",
          "name": "",
          "type": "uint256"
        }
      ],
      "stateMutability": "view",
      "type": "function"
    },
    {
      "inputs": [
        {
          "internalType": "uint256",
          "name": "",
          "type": "uint256"
        }
      ],
      "name": "proposals",
      "outputs": [
        {
          "internalType": "string",
          "name": "description",
          "type": "string"
        },
        {
          "internalType": "uint256",
          "name": "deadline",
          "type": "uint256"
        },
        {
          "internalType": "uint256",
          "name": "yesVotes",
          "type": "uint256"
        },
        {
          "internalType": "uint256",
          "name": "noVotes",
          "type": "uint256"
        }
      ],
      "stateMutability": "view",
      "type": "function"
    },
    {
      "inputs": [
        {
          "internalType": "uint256",
          "name": "proposalId",
          "type": "uint256"
        },
        {
          "internalType": "bool",
          "name": "support",
          "type": "bool"
        }
      ],
      "name": "vote",
      "outputs": [],
      "stateMutability": "nonpayable",
      "type": "function"
    }
  ],
  "bytecode": "0x6080604052600060015534801561001557600080fd5b5061002461002960201b60201c565b6101b0565b600061003961012d60201b60201c565b90508060000160089054906101000a900460ff1615610084576040517ff92ee8a900000000000000000000000000000000000000000000000000000000815260040160405180910390fd5b67ffffffffffffffff80168160000160009054906101000a900467ffffffffffffffff1667ffffffffffffffff161461012a5767ffffffffffffffff8160000160006101000a81548167ffffffffffffffff021916908367ffffffffffffffff1602179055507fc7f505b2f371ae2175ee4913f4499e1f2633a7b5936321eed1cdaeb6115181d267ffffffffffffffff6040516101219190610195565b60405180910390a15b50565b60008061013e61014760201b60201c565b90508091505090565b60007ff0c57e16840df040f15088dc2f81fe391c3923bec73e23a9662efc9c229c6a0060001b905090565b600067ffffffffffffffff82169050919050565b61018f81610172565b82525050565b60006020820190506101aa6000830184610186565b92915050565b611591806101bf6000396000f3fe608060405234801561001057600080fd5b506004361061007d5760003560e01c8063401853b71161005b578063401853b7146100ef578063c4d66de81461011f578063c9d27afe1461013b578063da35c664146101575761007d565b8063013cf08b1461008257806305268cff146100b557806335facf78146100d3575b600080fd5b61009c60048036038101906100979190610a20565b610175565b6040516100ac9493929190610aec565b60405180910390f35b6100bd61022d565b6040516100ca9190610bb7565b60405180910390f35b6100ed60048036038101906100e89190610d07565b610251565b005b61010960048036038101906101049190610a20565b6102eb565b6040516101169190610d63565b60405180910390f35b61013960048036038101906101349190610dc3565b61041d565b005b61015560048036038101906101509190610e28565b6105eb565b005b61015f610991565b60405161016c9190610e68565b60405180910390f35b600260205280600052604060002060009150905080600001805461019890610eb2565b80601f01602080910402602001604051908101604052809291908181526020018280546101c490610eb2565b80156102115780601f106101e657610100808354040283529160200191610211565b820191906000526020600020905b8154815290600101906020018083116101f457829003601f168201915b5050505050908060010154908060020154908060030154905084565b60008054906101000a900473ffffffffffffffffffffffffffffffffffffffff1681565b600060026000600154815260200190815260200160002090508281600001908161027b9190611085565b5081426102889190611186565b81600101819055506001547ffcf3b1aa65a464cef2889608f99e8b8c0f680a4be6c2acb9d961c536a5a9294b82600101546040516102c69190610e68565b60405180910390a2600160008154809291906102e1906111ba565b9190505550505050565b60606001548210610331576040517f08c379a00000000000000000000000000000000000000000000000000000000081526004016103289061124e565b60405180910390fd5b60006002600084815260200190815260200160002090508060010154421161038e576040517f08c379a0000000000000000000000000000000000000000000000000000000008152600401610385906112ba565b60405180910390fd5b600081600301548260020154119050806103dd576040518060400160405280600681526020017f4661696c65640000000000000000000000000000000000000000000000000000815250610414565b6040518060400160405280600681526020017f50617373656400000000000000000000000000000000000000000000000000008152505b92505050919050565b6000610427610997565b905060008160000160089054906101000a900460ff1615905060008260000160009054906101000a900467ffffffffffffffff1690506000808267ffffffffffffffff161480156104755750825b9050600060018367ffffffffffffffff161480156104aa575060003073ffffffffffffffffffffffffffffffffffffffff163b145b9050811580156104b8575080155b156104ef576040517ff92ee8a900000000000000000000000000000000000000000000000000000000815260040160405180910390fd5b60018560000160006101000a81548167ffffffffffffffff021916908367ffffffffffffffff160217905550831561053f5760018560000160086101000a81548160ff0219169083151502179055505b856000806101000a81548173ffffffffffffffffffffffffffffffffffffffff021916908373ffffffffffffffffffffffffffffffffffffffff160217905550600060018190555083156105e35760008560000160086101000a81548160ff0219169083151502179055507fc7f505b2f371ae2175ee4913f4499e1f2633a7b5936321eed1cdaeb6115181d260016040516105da9190611329565b60405180910390a15b505050505050565b600154821061062f576040517f08c379a00000000000000000000000000000000000000000000000000000000081526004016106269061124e565b60405180910390fd5b6000600260008481526020019081526020016000209050806001015442111561068d576040517f08c379a000000000000000000000000000000000000000000000000000000000815260040161068490611390565b60405180910390fd5b600060028111156106a1576106a06113b0565b5b8160040160003373ffffffffffffffffffffffffffffffffffffffff1673ffffffffffffffffffffffffffffffffffffffff16815260200190815260200160002060009054906101000a900460ff166002811115610702576107016113b0565b5b14610742576040517f08c379a00000000000000000000000000000000000000000000000000000000081526004016107399061142b565b60405180910390fd5b60008060009054906101000a900473ffffffffffffffffffffffffffffffffffffffff1673ffffffffffffffffffffffffffffffffffffffff166370a08231336040518263ffffffff1660e01b815260040161079e919061145a565b602060405180830381865afa1580156107bb573d6000803e3d6000fd5b505050506040513d601f19601f820116820180604052508101906107df919061148a565b905060008111610824576040517f08c379a000000000000000000000000000000000000000000000000000000000815260040161081b90611503565b60405180910390fd5b82156108b4578082600201600082825461083e9190611186565b9250508190555060018260040160003373ffffffffffffffffffffffffffffffffffffffff1673ffffffffffffffffffffffffffffffffffffffff16815260200190815260200160002060006101000a81548160ff021916908360028111156108aa576108a96113b0565b5b021790555061093a565b808260030160008282546108c89190611186565b9250508190555060028260040160003373ffffffffffffffffffffffffffffffffffffffff1673ffffffffffffffffffffffffffffffffffffffff16815260200190815260200160002060006101000a81548160ff02191690836002811115610934576109336113b0565b5b02179055505b3373ffffffffffffffffffffffffffffffffffffffff16847f7c2de587c00d75474a0c6c6fa96fd3b45dc974cd4e8a75f712bb84c950dce1b58584604051610983929190611532565b60405180910390a350505050565b60015481565b6000806109a26109ab565b90508091505090565b60007ff0c57e16840df040f15088dc2f81fe391c3923bec73e23a9662efc9c229c6a0060001b905090565b6000604051905090565b600080fd5b600080fd5b6000819050919050565b6109fd816109ea565b8114610a0857600080fd5b50565b600081359050610a1a816109f4565b92915050565b600060208284031215610a3657610a356109e0565b5b6000610a4484828501610a0b565b91505092915050565b600081519050919050565b600082825260208201905092915050565b60005b83811015610a87578082015181840152602081019050610a6c565b60008484015250505050565b6000601f19601f8301169050919050565b6000610aaf82610a4d565b610ab98185610a58565b9350610ac9818560208601610a69565b610ad281610a93565b840191505092915050565b610ae6816109ea565b82525050565b60006080820190508181036000830152610b068187610aa4565b9050610b156020830186610add565b610b226040830185610add565b610b2f6060830184610add565b95945050505050565b600073ffffffffffffffffffffffffffffffffffffffff82169050919050565b6000819050919050565b6000610b7d610b78610b7384610b38565b610b58565b610b38565b9050919050565b6000610b8f82610b62565b9050919050565b6000610ba182610b84565b9050919050565b610bb181610b96565b82525050565b6000602082019050610bcc6000830184610ba8565b92915050565b600080fd5b600080fd5b7f4e487b7100000000000000000000000000000000000000000000000000000000600052604160045260246000fd5b610c1482610a93565b810181811067ffffffffffffffff82111715610c3357610c32610bdc565b5b80604052505050565b6000610c466109d6565b9050610c528282610c0b565b919050565b600067ffffffffffffffff821115610c7257610c71610bdc565b5b610c7b82610a93565b9050602081019050919050565b82818337600083830152505050565b6000610caa610ca584610c57565b610c3c565b905082815260208101848484011115610cc657610cc5610bd7565b5b610cd1848285610c88565b509392505050565b600082601f830112610cee57610ced610bd2565b5b8135610cfe848260208601610c97565b91505092915050565b60008060408385031215610d1e57610d1d6109e0565b5b600083013567ffffffffffffffff811115610d3c57610d3b6109e5565b5b610d4885828601610cd9565b9250506020610d5985828601610a0b565b9150509250929050565b60006020820190508181036000830152610d7d8184610aa4565b905092915050565b6000610d9082610b38565b9050919050565b610da081610d85565b8114610dab57600080fd5b50565b600081359050610dbd81610d97565b92915050565b600060208284031215610dd957610dd86109e0565b5b6000610de784828501610dae565b91505092915050565b60008115159050919050565b610e0581610df0565b8114610e1057600080fd5b50565b600081359050610e2281610dfc565b92915050565b60008060408385031215610e3f57610e3e6109e0565b5b6000610e4d85828601610a0b565b9250506020610e5e85828601610e13565b9150509250929050565b6000602082019050610e7d6000830184610add565b92915050565b7f4e487b7100000000000000000000000000000000000000000000000000000000600052602260045260246000fd5b60006002820490506001821680610eca57607f821691505b602082108103610edd57610edc610e83565b5b50919050565b60008190508160005260206000209050919050565b60006020601f8301049050919050565b600082821b905092915050565b600060088302610f457fffffffffffffffffffffffffffffffffffffffffffffffffffffffffffffffff82610f08565b610f4f8683610f08565b95508019841693508086168417925050509392505050565b6000610f82610f7d610f78846109ea565b610b58565b6109ea565b9050919050565b6000819050919050565b610f9c83610f67565b610fb0610fa882610f89565b848454610f15565b825550505050565b600090565b610fc5610fb8565b610fd0818484610f93565b505050565b5b81811015610ff457610fe9600082610fbd565b600181019050610fd6565b5050565b601f8211156110395761100a81610ee3565b61101384610ef8565b81016020851015611022578190505b61103661102e85610ef8565b830182610fd5565b50505b505050565b600082821c905092915050565b600061105c6000198460080261103e565b1980831691505092915050565b6000611075838361104b565b9150826002028217905092915050565b61108e82610a4d565b67ffffffffffffffff8111156110a7576110a6610bdc565b5b6110b18254610eb2565b6110bc828285610ff8565b600060209050601f8311600181146110ef57600084156110dd578287015190505b6110e78582611069565b86555061114f565b601f1984166110fd86610ee3565b60005b8281101561112557848901518255600182019150602085019450602081019050611100565b86831015611142578489015161113e601f89168261104b565b8355505b6001600288020188555050505b505050505050565b7f4e487b7100000000000000000000000000000000000000000000000000000000600052601160045260246000fd5b6000611191826109ea565b915061119c836109ea565b92508282019050808211156111b4576111b3611157565b5b92915050565b60006111c5826109ea565b91507fffffffffffffffffffffffffffffffffffffffffffffffffffffffffffffffff82036111f7576111f6611157565b5b600182019050919050565b7f50726f706f73616c20646f6573206e6f74206578697374000000000000000000600082015250565b6000611238601783610a58565b915061124382611202565b602082019050919050565b600060208201905081810360008301526112678161122b565b9050919050565b7f5374696c6c206163746976650000000000000000000000000000000000000000600082015250565b60006112a4600c83610a58565b91506112af8261126e565b602082019050919050565b600060208201905081810360008301526112d381611297565b9050919050565b6000819050919050565b600067ffffffffffffffff82169050919050565b600061131361130e611309846112da565b610b58565b6112e4565b9050919050565b611323816112f8565b82525050565b600060208201905061133e600083018461131a565b92915050565b7f566f74696e6720636c6f73656400000000000000000000000000000000000000600082015250565b600061137a600d83610a58565b915061138582611344565b602082019050919050565b600060208201905081810360008301526113a98161136d565b9050919050565b7f4e487b7100000000000000000000000000000000000000000000000000000000600052602160045260246000fd5b7f416c726561647920766f74656400000000000000000000000000000000000000600082015250565b6000611415600d83610a58565b9150611420826113df565b602082019050919050565b6000602082019050818103600083015261144481611408565b9050919050565b61145481610d85565b82525050565b600060208201905061146f600083018461144b565b92915050565b600081519050611484816109f4565b92915050565b6000602082840312156114a05761149f6109e0565b5b60006114ae84828501611475565b91505092915050565b7f4e6f20766f74696e6720706f7765720000000000000000000000000000000000600082015250565b60006114ed600f83610a58565b91506114f8826114b7565b602082019050919050565b6000602082019050818103600083015261151c816114e0565b9050919050565b61152c81610df0565b82525050565b60006040820190506115476000830185611523565b6115546020830184610add565b939250505056fea2646970667358221220a0775d95014231ba08deff043226e1a513cae6c2ef7be5ba94223cfe34b1cd4b64736f6c634300081c0033",
  "linkReferences": {},
  "deployedLinkReferences": {}
}